{
  "_format": "hh-sol-artifact-1",
  "contractName": "SidechainERC721",
  "sourceName": "contracts/SidechainERC721.sol",
  "abi": [
    {
      "inputs": [
        {
          "internalType": "address",
          "name": "_creator",
          "type": "address"
        },
        {
          "internalType": "address[]",
          "name": "_parents",
          "type": "address[]"
        },
        {
          "internalType": "uint16",
          "name": "_REV",
          "type": "uint16"
        }
      ],
      "stateMutability": "nonpayable",
      "type": "constructor"
    },
    {
      "anonymous": false,
      "inputs": [
        {
          "indexed": true,
          "internalType": "address",
          "name": "owner",
          "type": "address"
        },
        {
          "indexed": true,
          "internalType": "address",
          "name": "approved",
          "type": "address"
        },
        {
          "indexed": true,
          "internalType": "uint256",
          "name": "tokenId",
          "type": "uint256"
        }
      ],
      "name": "Approval",
      "type": "event"
    },
    {
      "anonymous": false,
      "inputs": [
        {
          "indexed": true,
          "internalType": "address",
          "name": "owner",
          "type": "address"
        },
        {
          "indexed": true,
          "internalType": "address",
          "name": "operator",
          "type": "address"
        },
        {
          "indexed": false,
          "internalType": "bool",
          "name": "approved",
          "type": "bool"
        }
      ],
      "name": "ApprovalForAll",
      "type": "event"
    },
    {
      "anonymous": false,
      "inputs": [
        {
          "indexed": false,
          "internalType": "address",
          "name": "newAddress",
          "type": "address"
        }
      ],
      "name": "SidechainCreated",
      "type": "event"
    },
    {
      "anonymous": false,
      "inputs": [
        {
          "indexed": true,
          "internalType": "address",
          "name": "from",
          "type": "address"
        },
        {
          "indexed": true,
          "internalType": "address",
          "name": "to",
          "type": "address"
        },
        {
          "indexed": true,
          "internalType": "uint256",
          "name": "tokenId",
          "type": "uint256"
        }
      ],
      "name": "Transfer",
      "type": "event"
    },
    {
      "inputs": [],
      "name": "REV",
      "outputs": [
        {
          "internalType": "uint16",
          "name": "",
          "type": "uint16"
        }
      ],
      "stateMutability": "view",
      "type": "function"
    },
    {
      "inputs": [
        {
          "internalType": "address",
          "name": "to",
          "type": "address"
        },
        {
          "internalType": "uint256",
          "name": "tokenId",
          "type": "uint256"
        }
      ],
      "name": "approve",
      "outputs": [],
      "stateMutability": "nonpayable",
      "type": "function"
    },
    {
      "inputs": [
        {
          "internalType": "address",
          "name": "owner",
          "type": "address"
        }
      ],
      "name": "balanceOf",
      "outputs": [
        {
          "internalType": "uint256",
          "name": "",
          "type": "uint256"
        }
      ],
      "stateMutability": "view",
      "type": "function"
    },
    {
      "inputs": [],
      "name": "copyrightPayment",
      "outputs": [],
      "stateMutability": "payable",
      "type": "function"
    },
    {
      "inputs": [],
      "name": "creator",
      "outputs": [
        {
          "internalType": "address",
          "name": "",
          "type": "address"
        }
      ],
      "stateMutability": "view",
      "type": "function"
    },
    {
      "inputs": [
        {
          "internalType": "uint256",
          "name": "tokenId",
          "type": "uint256"
        }
      ],
      "name": "getApproved",
      "outputs": [
        {
          "internalType": "address",
          "name": "",
          "type": "address"
        }
      ],
      "stateMutability": "view",
      "type": "function"
    },
    {
      "inputs": [],
      "name": "getCreator",
      "outputs": [
        {
          "internalType": "address",
          "name": "",
          "type": "address"
        }
      ],
      "stateMutability": "view",
      "type": "function"
    },
    {
      "inputs": [],
      "name": "getParents",
      "outputs": [
        {
          "internalType": "address[]",
          "name": "",
          "type": "address[]"
        }
      ],
      "stateMutability": "view",
      "type": "function"
    },
    {
      "inputs": [],
      "name": "getREV",
      "outputs": [
        {
          "internalType": "uint16",
          "name": "",
          "type": "uint16"
        }
      ],
      "stateMutability": "view",
      "type": "function"
    },
    {
      "inputs": [
        {
          "internalType": "address",
          "name": "owner",
          "type": "address"
        },
        {
          "internalType": "address",
          "name": "operator",
          "type": "address"
        }
      ],
      "name": "isApprovedForAll",
      "outputs": [
        {
          "internalType": "bool",
          "name": "",
          "type": "bool"
        }
      ],
      "stateMutability": "view",
      "type": "function"
    },
    {
      "inputs": [],
      "name": "name",
      "outputs": [
        {
          "internalType": "string",
          "name": "",
          "type": "string"
        }
      ],
      "stateMutability": "view",
      "type": "function"
    },
    {
      "inputs": [
        {
          "internalType": "uint256",
          "name": "tokenId",
          "type": "uint256"
        }
      ],
      "name": "ownerOf",
      "outputs": [
        {
          "internalType": "address",
          "name": "",
          "type": "address"
        }
      ],
      "stateMutability": "view",
      "type": "function"
    },
    {
      "inputs": [
        {
          "internalType": "uint256",
          "name": "",
          "type": "uint256"
        }
      ],
      "name": "parents",
      "outputs": [
        {
          "internalType": "address",
          "name": "",
          "type": "address"
        }
      ],
      "stateMutability": "view",
      "type": "function"
    },
    {
      "inputs": [
        {
          "internalType": "address",
          "name": "from",
          "type": "address"
        },
        {
          "internalType": "address",
          "name": "to",
          "type": "address"
        },
        {
          "internalType": "uint256",
          "name": "tokenId",
          "type": "uint256"
        }
      ],
      "name": "safeTransferFrom",
      "outputs": [],
      "stateMutability": "nonpayable",
      "type": "function"
    },
    {
      "inputs": [
        {
          "internalType": "address",
          "name": "from",
          "type": "address"
        },
        {
          "internalType": "address",
          "name": "to",
          "type": "address"
        },
        {
          "internalType": "uint256",
          "name": "tokenId",
          "type": "uint256"
        },
        {
          "internalType": "bytes",
          "name": "data",
          "type": "bytes"
        }
      ],
      "name": "safeTransferFrom",
      "outputs": [],
      "stateMutability": "nonpayable",
      "type": "function"
    },
    {
      "inputs": [
        {
          "internalType": "address",
          "name": "operator",
          "type": "address"
        },
        {
          "internalType": "bool",
          "name": "approved",
          "type": "bool"
        }
      ],
      "name": "setApprovalForAll",
      "outputs": [],
      "stateMutability": "nonpayable",
      "type": "function"
    },
    {
      "inputs": [
        {
          "internalType": "bytes4",
          "name": "interfaceId",
          "type": "bytes4"
        }
      ],
      "name": "supportsInterface",
      "outputs": [
        {
          "internalType": "bool",
          "name": "",
          "type": "bool"
        }
      ],
      "stateMutability": "view",
      "type": "function"
    },
    {
      "inputs": [],
      "name": "symbol",
      "outputs": [
        {
          "internalType": "string",
          "name": "",
          "type": "string"
        }
      ],
      "stateMutability": "view",
      "type": "function"
    },
    {
      "inputs": [
        {
          "internalType": "uint256",
          "name": "index",
          "type": "uint256"
        }
      ],
      "name": "tokenByIndex",
      "outputs": [
        {
          "internalType": "uint256",
          "name": "",
          "type": "uint256"
        }
      ],
      "stateMutability": "view",
      "type": "function"
    },
    {
      "inputs": [
        {
          "internalType": "address",
          "name": "owner",
          "type": "address"
        },
        {
          "internalType": "uint256",
          "name": "index",
          "type": "uint256"
        }
      ],
      "name": "tokenOfOwnerByIndex",
      "outputs": [
        {
          "internalType": "uint256",
          "name": "",
          "type": "uint256"
        }
      ],
      "stateMutability": "view",
      "type": "function"
    },
    {
      "inputs": [
        {
          "internalType": "uint256",
          "name": "tokenId",
          "type": "uint256"
        }
      ],
      "name": "tokenURI",
      "outputs": [
        {
          "internalType": "string",
          "name": "",
          "type": "string"
        }
      ],
      "stateMutability": "view",
      "type": "function"
    },
    {
      "inputs": [],
      "name": "totalSupply",
      "outputs": [
        {
          "internalType": "uint256",
          "name": "",
          "type": "uint256"
        }
      ],
      "stateMutability": "view",
      "type": "function"
    },
    {
      "inputs": [
        {
          "internalType": "address",
          "name": "from",
          "type": "address"
        },
        {
          "internalType": "address",
          "name": "to",
          "type": "address"
        },
        {
          "internalType": "uint256",
          "name": "tokenId",
          "type": "uint256"
        }
      ],
      "name": "transferFrom",
      "outputs": [],
      "stateMutability": "nonpayable",
      "type": "function"
    }
  ],
  "bytecode": "0x60806040526064600c60026101000a81548161ffff021916908361ffff1602179055506000600c60046101000a81548161ffff021916908361ffff1602179055503480156200004d57600080fd5b5060405162004c6438038062004c64833981810160405281019062000073919062001571565b6040518060400160405280600981526020017f53696465636861696e00000000000000000000000000000000000000000000008152506040518060400160405280600481526020017f5344434e000000000000000000000000000000000000000000000000000000008152508160009080519060200190620000f792919062001205565b5080600190805190602001906200011092919062001205565b505050600c60029054906101000a900461ffff1661ffff168161ffff16111562000171576040517f08c379a000000000000000000000000000000000000000000000000000000000815260040162000168906200164d565b60405180910390fd5b81600b90805190602001906200018992919062001296565b5080600c60006101000a81548161ffff021916908361ffff16021790555082600a60006101000a81548173ffffffffffffffffffffffffffffffffffffffff021916908373ffffffffffffffffffffffffffffffffffffffff1602179055506000600c60029054906101000a900461ffff1661ffff1667ffffffffffffffff8111156200021b576200021a620013d3565b5b6040519080825280602002602001820160405280156200024a5781602001602082028036833780820191505090505b5090506200025f81846200055760201b60201c565b600c60029054906101000a900461ffff1661ffff166200028582620006dc60201b60201c565b61ffff161115620002cd576040517f08c379a0000000000000000000000000000000000000000000000000000000008152600401620002c490620016e5565b60405180910390fd5b600080600090505b600c60049054906101000a900461ffff1661ffff168161ffff16101562000495576000838261ffff168151811062000312576200031162001707565b5b602002602001015190506200032c620007df60201b60201c565b925060005b8173ffffffffffffffffffffffffffffffffffffffff16633360d60f6040518163ffffffff1660e01b815260040160206040518083038186803b1580156200037857600080fd5b505afa1580156200038d573d6000803e3d6000fd5b505050506040513d601f19601f82011682018060405250810190620003b3919062001736565b61ffff168161ffff1610156200047d57620004678273ffffffffffffffffffffffffffffffffffffffff16630ee2cb106040518163ffffffff1660e01b815260040160206040518083038186803b1580156200040e57600080fd5b505afa15801562000423573d6000803e3d6000fd5b505050506040513d601f19601f8201168201806040525081019062000449919062001768565b8261ffff16866200045b9190620017d3565b620007ec60201b60201c565b8080620004749062001830565b91505062000331565b505080806200048c9062001830565b915050620002d5565b50620004a6620007df60201b60201c565b905060005b81600c60029054906101000a900461ffff1661ffff16620004cd919062001860565b8161ffff1610156200051257620004fc868261ffff1684620004f09190620017d3565b620007ec60201b60201c565b8080620005099062001830565b915050620004ab565b507ffe1961788bdd8ba6a4419836c26511999971fea9861b1f130c759e998b7d6ee930604051620005449190620018ac565b60405180910390a1505050505062001dd6565b60005b8151811015620006d75760008282815181106200057c576200057b62001707565b5b602002602001015190508084600c60049054906101000a900461ffff1661ffff1681518110620005b157620005b062001707565b5b602002602001019073ffffffffffffffffffffffffffffffffffffffff16908173ffffffffffffffffffffffffffffffffffffffff1681525050600c600481819054906101000a900461ffff16809291906200060d9062001830565b91906101000a81548161ffff021916908361ffff16021790555050620006c0848273ffffffffffffffffffffffffffffffffffffffff1663dd6133b56040518163ffffffff1660e01b815260040160006040518083038186803b1580156200067457600080fd5b505afa15801562000689573d6000803e3d6000fd5b505050506040513d6000823e3d601f19601f82011682018060405250810190620006b49190620018c9565b6200055760201b60201c565b508080620006ce906200191a565b9150506200055a565b505050565b6000806000905060005b600c60049054906101000a900461ffff1661ffff168161ffff161015620007d5576000848261ffff168151811062000723576200072262001707565b5b602002602001015190508073ffffffffffffffffffffffffffffffffffffffff16633360d60f6040518163ffffffff1660e01b815260040160206040518083038186803b1580156200077457600080fd5b505afa15801562000789573d6000803e3d6000fd5b505050506040513d601f19601f82011682018060405250810190620007af919062001736565b83620007bc919062001968565b9250508080620007cc9062001830565b915050620006e6565b5080915050919050565b6000600880549050905090565b6200080e8282604051806020016040528060008152506200081260201b60201c565b5050565b6200082483836200088060201b60201c565b62000839600084848462000a7a60201b60201c565b6200087b576040517f08c379a0000000000000000000000000000000000000000000000000000000008152600401620008729062001a1d565b60405180910390fd5b505050565b600073ffffffffffffffffffffffffffffffffffffffff168273ffffffffffffffffffffffffffffffffffffffff161415620008f3576040517f08c379a0000000000000000000000000000000000000000000000000000000008152600401620008ea9062001a8f565b60405180910390fd5b620009048162000c3460201b60201c565b1562000947576040517f08c379a00000000000000000000000000000000000000000000000000000000081526004016200093e9062001b01565b60405180910390fd5b6200095b6000838362000ca060201b60201c565b6001600360008473ffffffffffffffffffffffffffffffffffffffff1673ffffffffffffffffffffffffffffffffffffffff1681526020019081526020016000206000828254620009ad9190620017d3565b92505081905550816002600083815260200190815260200160002060006101000a81548173ffffffffffffffffffffffffffffffffffffffff021916908373ffffffffffffffffffffffffffffffffffffffff160217905550808273ffffffffffffffffffffffffffffffffffffffff16600073ffffffffffffffffffffffffffffffffffffffff167fddf252ad1be2c89b69c2b068fc378daa952ba7f163c4a11628f55a4df523b3ef60405160405180910390a462000a766000838362000de760201b60201c565b5050565b600062000aa88473ffffffffffffffffffffffffffffffffffffffff1662000dec60201b62000eff1760201c565b1562000c27578373ffffffffffffffffffffffffffffffffffffffff1663150b7a0262000ada62000e0f60201b60201c565b8786866040518563ffffffff1660e01b815260040162000afe949392919062001bc7565b602060405180830381600087803b15801562000b1957600080fd5b505af192505050801562000b4d57506040513d601f19601f8201168201806040525081019062000b4a919062001c78565b60015b62000bd6573d806000811462000b80576040519150601f19603f3d011682016040523d82523d6000602084013e62000b85565b606091505b5060008151141562000bce576040517f08c379a000000000000000000000000000000000000000000000000000000000815260040162000bc59062001a1d565b60405180910390fd5b805181602001fd5b63150b7a0260e01b7bffffffffffffffffffffffffffffffffffffffffffffffffffffffff1916817bffffffffffffffffffffffffffffffffffffffffffffffffffffffff19161491505062000c2c565b600190505b949350505050565b60008073ffffffffffffffffffffffffffffffffffffffff166002600084815260200190815260200160002060009054906101000a900473ffffffffffffffffffffffffffffffffffffffff1673ffffffffffffffffffffffffffffffffffffffff1614159050919050565b62000cb883838362000e1760201b62000f221760201c565b600073ffffffffffffffffffffffffffffffffffffffff168373ffffffffffffffffffffffffffffffffffffffff16141562000d055762000cff8162000e1c60201b60201c565b62000d4d565b8173ffffffffffffffffffffffffffffffffffffffff168373ffffffffffffffffffffffffffffffffffffffff161462000d4c5762000d4b838262000e6560201b60201c565b5b5b600073ffffffffffffffffffffffffffffffffffffffff168273ffffffffffffffffffffffffffffffffffffffff16141562000d9a5762000d948162000fe260201b60201c565b62000de2565b8273ffffffffffffffffffffffffffffffffffffffff168273ffffffffffffffffffffffffffffffffffffffff161462000de15762000de08282620010be60201b60201c565b5b5b505050565b505050565b6000808273ffffffffffffffffffffffffffffffffffffffff163b119050919050565b600033905090565b505050565b6008805490506009600083815260200190815260200160002081905550600881908060018154018082558091505060019003906000526020600020016000909190919091505550565b6000600162000e7f846200114a60201b62000ad41760201c565b62000e8b919062001860565b905060006007600084815260200190815260200160002054905081811462000f71576000600660008673ffffffffffffffffffffffffffffffffffffffff1673ffffffffffffffffffffffffffffffffffffffff168152602001908152602001600020600084815260200190815260200160002054905080600660008773ffffffffffffffffffffffffffffffffffffffff1673ffffffffffffffffffffffffffffffffffffffff168152602001908152602001600020600084815260200190815260200160002081905550816007600083815260200190815260200160002081905550505b6007600084815260200190815260200160002060009055600660008573ffffffffffffffffffffffffffffffffffffffff1673ffffffffffffffffffffffffffffffffffffffff16815260200190815260200160002060008381526020019081526020016000206000905550505050565b6000600160088054905062000ff8919062001860565b90506000600960008481526020019081526020016000205490506000600883815481106200102b576200102a62001707565b5b90600052602060002001549050806008838154811062001050576200104f62001707565b5b906000526020600020018190555081600960008381526020019081526020016000208190555060096000858152602001908152602001600020600090556008805480620010a257620010a162001caa565b5b6001900381819060005260206000200160009055905550505050565b6000620010d6836200114a60201b62000ad41760201c565b905081600660008573ffffffffffffffffffffffffffffffffffffffff1673ffffffffffffffffffffffffffffffffffffffff168152602001908152602001600020600083815260200190815260200160002081905550806007600084815260200190815260200160002081905550505050565b60008073ffffffffffffffffffffffffffffffffffffffff168273ffffffffffffffffffffffffffffffffffffffff161415620011be576040517f08c379a0000000000000000000000000000000000000000000000000000000008152600401620011b59062001d4f565b60405180910390fd5b600360008373ffffffffffffffffffffffffffffffffffffffff1673ffffffffffffffffffffffffffffffffffffffff168152602001908152602001600020549050919050565b828054620012139062001da0565b90600052602060002090601f01602090048101928262001237576000855562001283565b82601f106200125257805160ff191683800117855562001283565b8280016001018555821562001283579182015b828111156200128257825182559160200191906001019062001265565b5b50905062001292919062001325565b5090565b82805482825590600052602060002090810192821562001312579160200282015b82811115620013115782518260006101000a81548173ffffffffffffffffffffffffffffffffffffffff021916908373ffffffffffffffffffffffffffffffffffffffff16021790555091602001919060010190620012b7565b5b50905062001321919062001325565b5090565b5b808211156200134057600081600090555060010162001326565b5090565b6000604051905090565b600080fd5b600080fd5b600073ffffffffffffffffffffffffffffffffffffffff82169050919050565b6000620013858262001358565b9050919050565b620013978162001378565b8114620013a357600080fd5b50565b600081519050620013b7816200138c565b92915050565b600080fd5b6000601f19601f8301169050919050565b7f4e487b7100000000000000000000000000000000000000000000000000000000600052604160045260246000fd5b6200140d82620013c2565b810181811067ffffffffffffffff821117156200142f576200142e620013d3565b5b80604052505050565b60006200144462001344565b905062001452828262001402565b919050565b600067ffffffffffffffff821115620014755762001474620013d3565b5b602082029050602081019050919050565b600080fd5b6000620014a26200149c8462001457565b62001438565b90508083825260208201905060208402830185811115620014c857620014c762001486565b5b835b81811015620014f55780620014e08882620013a6565b845260208401935050602081019050620014ca565b5050509392505050565b600082601f830112620015175762001516620013bd565b5b8151620015298482602086016200148b565b91505092915050565b600061ffff82169050919050565b6200154b8162001532565b81146200155757600080fd5b50565b6000815190506200156b8162001540565b92915050565b6000806000606084860312156200158d576200158c6200134e565b5b60006200159d86828701620013a6565b935050602084015167ffffffffffffffff811115620015c157620015c062001353565b5b620015cf86828701620014ff565b9250506040620015e2868287016200155a565b9150509250925092565b600082825260208201905092915050565b7f4d6178696d756d20524556203d203130302e0000000000000000000000000000600082015250565b600062001635601283620015ec565b91506200164282620015fd565b602082019050919050565b60006020820190508181036000830152620016688162001626565b9050919050565b7f4e6f7420656e6f756768206571756974792072656d61696e696e6720746f206d60008201527f696e742e00000000000000000000000000000000000000000000000000000000602082015250565b6000620016cd602483620015ec565b9150620016da826200166f565b604082019050919050565b600060208201905081810360008301526200170081620016be565b9050919050565b7f4e487b7100000000000000000000000000000000000000000000000000000000600052603260045260246000fd5b6000602082840312156200174f576200174e6200134e565b5b60006200175f848285016200155a565b91505092915050565b6000602082840312156200178157620017806200134e565b5b60006200179184828501620013a6565b91505092915050565b6000819050919050565b7f4e487b7100000000000000000000000000000000000000000000000000000000600052601160045260246000fd5b6000620017e0826200179a565b9150620017ed836200179a565b9250827fffffffffffffffffffffffffffffffffffffffffffffffffffffffffffffffff03821115620018255762001824620017a4565b5b828201905092915050565b60006200183d8262001532565b915061ffff821415620018555762001854620017a4565b5b600182019050919050565b60006200186d826200179a565b91506200187a836200179a565b92508282101562001890576200188f620017a4565b5b828203905092915050565b620018a68162001378565b82525050565b6000602082019050620018c360008301846200189b565b92915050565b600060208284031215620018e257620018e16200134e565b5b600082015167ffffffffffffffff81111562001903576200190262001353565b5b6200191184828501620014ff565b91505092915050565b600062001927826200179a565b91507fffffffffffffffffffffffffffffffffffffffffffffffffffffffffffffffff8214156200195d576200195c620017a4565b5b600182019050919050565b6000620019758262001532565b9150620019828362001532565b92508261ffff038211156200199c576200199b620017a4565b5b828201905092915050565b7f4552433732313a207472616e7366657220746f206e6f6e20455243373231526560008201527f63656976657220696d706c656d656e7465720000000000000000000000000000602082015250565b600062001a05603283620015ec565b915062001a1282620019a7565b604082019050919050565b6000602082019050818103600083015262001a3881620019f6565b9050919050565b7f4552433732313a206d696e7420746f20746865207a65726f2061646472657373600082015250565b600062001a77602083620015ec565b915062001a848262001a3f565b602082019050919050565b6000602082019050818103600083015262001aaa8162001a68565b9050919050565b7f4552433732313a20746f6b656e20616c7265616479206d696e74656400000000600082015250565b600062001ae9601c83620015ec565b915062001af68262001ab1565b602082019050919050565b6000602082019050818103600083015262001b1c8162001ada565b9050919050565b62001b2e816200179a565b82525050565b600081519050919050565b600082825260208201905092915050565b60005b8381101562001b7057808201518184015260208101905062001b53565b8381111562001b80576000848401525b50505050565b600062001b938262001b34565b62001b9f818562001b3f565b935062001bb181856020860162001b50565b62001bbc81620013c2565b840191505092915050565b600060808201905062001bde60008301876200189b565b62001bed60208301866200189b565b62001bfc604083018562001b23565b818103606083015262001c10818462001b86565b905095945050505050565b60007fffffffff0000000000000000000000000000000000000000000000000000000082169050919050565b62001c528162001c1b565b811462001c5e57600080fd5b50565b60008151905062001c728162001c47565b92915050565b60006020828403121562001c915762001c906200134e565b5b600062001ca18482850162001c61565b91505092915050565b7f4e487b7100000000000000000000000000000000000000000000000000000000600052603160045260246000fd5b7f4552433732313a2061646472657373207a65726f206973206e6f74206120766160008201527f6c6964206f776e65720000000000000000000000000000000000000000000000602082015250565b600062001d37602983620015ec565b915062001d448262001cd9565b604082019050919050565b6000602082019050818103600083015262001d6a8162001d28565b9050919050565b7f4e487b7100000000000000000000000000000000000000000000000000000000600052602260045260246000fd5b6000600282049050600182168062001db957607f821691505b6020821081141562001dd05762001dcf62001d71565b5b50919050565b612e7e8062001de66000396000f3fe6080604052600436106101405760003560e01c806342842e0e116100b6578063a22cb4651161006f578063a22cb46514610498578063b88d4fde146104c1578063c87b56dd146104ea578063dd6133b514610527578063e985e9c514610552578063f87717cf1461058f57610140565b806342842e0e146103505780634f6ccce7146103795780636352211e146103b657806370a08231146103f3578063898572a61461043057806395d89b411461046d57610140565b80630ee2cb10116101085780630ee2cb101461023e57806318160ddd1461026957806323b872dd146102945780632bc89ff6146102bd5780632f745c59146102e85780633360d60f1461032557610140565b806301ffc9a71461014557806302d05d3f1461018257806306fdde03146101ad578063081812fc146101d8578063095ea7b314610215575b600080fd5b34801561015157600080fd5b5061016c60048036038101906101679190611e4a565b610599565b6040516101799190611e92565b60405180910390f35b34801561018e57600080fd5b50610197610613565b6040516101a49190611eee565b60405180910390f35b3480156101b957600080fd5b506101c2610639565b6040516101cf9190611fa2565b60405180910390f35b3480156101e457600080fd5b506101ff60048036038101906101fa9190611ffa565b6106cb565b60405161020c9190611eee565b60405180910390f35b34801561022157600080fd5b5061023c60048036038101906102379190612053565b610711565b005b34801561024a57600080fd5b50610253610829565b6040516102609190611eee565b60405180910390f35b34801561027557600080fd5b5061027e610853565b60405161028b91906120a2565b60405180910390f35b3480156102a057600080fd5b506102bb60048036038101906102b691906120bd565b610860565b005b3480156102c957600080fd5b506102d26108c0565b6040516102df919061212d565b60405180910390f35b3480156102f457600080fd5b5061030f600480360381019061030a9190612053565b6108d4565b60405161031c91906120a2565b60405180910390f35b34801561033157600080fd5b5061033a610979565b604051610347919061212d565b60405180910390f35b34801561035c57600080fd5b50610377600480360381019061037291906120bd565b610991565b005b34801561038557600080fd5b506103a0600480360381019061039b9190611ffa565b6109b1565b6040516103ad91906120a2565b60405180910390f35b3480156103c257600080fd5b506103dd60048036038101906103d89190611ffa565b610a22565b6040516103ea9190611eee565b60405180910390f35b3480156103ff57600080fd5b5061041a60048036038101906104159190612148565b610ad4565b60405161042791906120a2565b60405180910390f35b34801561043c57600080fd5b5061045760048036038101906104529190611ffa565b610b8c565b6040516104649190611eee565b60405180910390f35b34801561047957600080fd5b50610482610bcb565b60405161048f9190611fa2565b60405180910390f35b3480156104a457600080fd5b506104bf60048036038101906104ba91906121a1565b610c5d565b005b3480156104cd57600080fd5b506104e860048036038101906104e39190612316565b610c73565b005b3480156104f657600080fd5b50610511600480360381019061050c9190611ffa565b610cd5565b60405161051e9190611fa2565b60405180910390f35b34801561053357600080fd5b5061053c610d3d565b6040516105499190612457565b60405180910390f35b34801561055e57600080fd5b5061057960048036038101906105749190612479565b610dcb565b6040516105869190611e92565b60405180910390f35b610597610e5f565b005b60007f780e9d63000000000000000000000000000000000000000000000000000000007bffffffffffffffffffffffffffffffffffffffffffffffffffffffff1916827bffffffffffffffffffffffffffffffffffffffffffffffffffffffff1916148061060c575061060b82610f27565b5b9050919050565b600a60009054906101000a900473ffffffffffffffffffffffffffffffffffffffff1681565b606060008054610648906124e8565b80601f0160208091040260200160405190810160405280929190818152602001828054610674906124e8565b80156106c15780601f10610696576101008083540402835291602001916106c1565b820191906000526020600020905b8154815290600101906020018083116106a457829003601f168201915b5050505050905090565b60006106d682611009565b6004600083815260200190815260200160002060009054906101000a900473ffffffffffffffffffffffffffffffffffffffff169050919050565b600061071c82610a22565b90508073ffffffffffffffffffffffffffffffffffffffff168373ffffffffffffffffffffffffffffffffffffffff16141561078d576040517f08c379a00000000000000000000000000000000000000000000000000000000081526004016107849061258c565b60405180910390fd5b8073ffffffffffffffffffffffffffffffffffffffff166107ac611054565b73ffffffffffffffffffffffffffffffffffffffff1614806107db57506107da816107d5611054565b610dcb565b5b61081a576040517f08c379a00000000000000000000000000000000000000000000000000000000081526004016108119061261e565b60405180910390fd5b610824838361105c565b505050565b6000600a60009054906101000a900473ffffffffffffffffffffffffffffffffffffffff16905090565b6000600880549050905090565b61087161086b611054565b82611115565b6108b0576040517f08c379a00000000000000000000000000000000000000000000000000000000081526004016108a7906126b0565b60405180910390fd5b6108bb8383836111aa565b505050565b600c60009054906101000a900461ffff1681565b60006108df83610ad4565b8210610920576040517f08c379a000000000000000000000000000000000000000000000000000000000815260040161091790612742565b60405180910390fd5b600660008473ffffffffffffffffffffffffffffffffffffffff1673ffffffffffffffffffffffffffffffffffffffff168152602001908152602001600020600083815260200190815260200160002054905092915050565b6000600c60009054906101000a900461ffff16905090565b6109ac83838360405180602001604052806000815250610c73565b505050565b60006109bb610853565b82106109fc576040517f08c379a00000000000000000000000000000000000000000000000000000000081526004016109f3906127d4565b60405180910390fd5b60088281548110610a1057610a0f6127f4565b5b90600052602060002001549050919050565b6000806002600084815260200190815260200160002060009054906101000a900473ffffffffffffffffffffffffffffffffffffffff169050600073ffffffffffffffffffffffffffffffffffffffff168173ffffffffffffffffffffffffffffffffffffffff161415610acb576040517f08c379a0000000000000000000000000000000000000000000000000000000008152600401610ac29061286f565b60405180910390fd5b80915050919050565b60008073ffffffffffffffffffffffffffffffffffffffff168273ffffffffffffffffffffffffffffffffffffffff161415610b45576040517f08c379a0000000000000000000000000000000000000000000000000000000008152600401610b3c90612901565b60405180910390fd5b600360008373ffffffffffffffffffffffffffffffffffffffff1673ffffffffffffffffffffffffffffffffffffffff168152602001908152602001600020549050919050565b600b8181548110610b9c57600080fd5b906000526020600020016000915054906101000a900473ffffffffffffffffffffffffffffffffffffffff1681565b606060018054610bda906124e8565b80601f0160208091040260200160405190810160405280929190818152602001828054610c06906124e8565b8015610c535780601f10610c2857610100808354040283529160200191610c53565b820191906000526020600020905b815481529060010190602001808311610c3657829003601f168201915b5050505050905090565b610c6f610c68611054565b8383611411565b5050565b610c84610c7e611054565b83611115565b610cc3576040517f08c379a0000000000000000000000000000000000000000000000000000000008152600401610cba906126b0565b60405180910390fd5b610ccf8484848461157e565b50505050565b6060610ce082611009565b6000610cea6115da565b90506000815111610d0a5760405180602001604052806000815250610d35565b80610d14846115f1565b604051602001610d2592919061295d565b6040516020818303038152906040525b915050919050565b6060600b805480602002602001604051908101604052809291908181526020018280548015610dc157602002820191906000526020600020905b8160009054906101000a900473ffffffffffffffffffffffffffffffffffffffff1673ffffffffffffffffffffffffffffffffffffffff1681526020019060010190808311610d77575b5050505050905090565b6000600560008473ffffffffffffffffffffffffffffffffffffffff1673ffffffffffffffffffffffffffffffffffffffff16815260200190815260200160002060008373ffffffffffffffffffffffffffffffffffffffff1673ffffffffffffffffffffffffffffffffffffffff16815260200190815260200160002060009054906101000a900460ff16905092915050565b6000600c60029054906101000a900461ffff1661ffff1634610e8191906129df565b905060005b600c60029054906101000a900461ffff1661ffff16811015610efb57610eab81610a22565b73ffffffffffffffffffffffffffffffffffffffff166108fc839081150290604051600060405180830381858888f19350505050610ee857600080fd5b8080610ef390612a10565b915050610e86565b5050565b6000808273ffffffffffffffffffffffffffffffffffffffff163b119050919050565b505050565b60007f80ac58cd000000000000000000000000000000000000000000000000000000007bffffffffffffffffffffffffffffffffffffffffffffffffffffffff1916827bffffffffffffffffffffffffffffffffffffffffffffffffffffffff19161480610ff257507f5b5e139f000000000000000000000000000000000000000000000000000000007bffffffffffffffffffffffffffffffffffffffffffffffffffffffff1916827bffffffffffffffffffffffffffffffffffffffffffffffffffffffff1916145b80611002575061100182611752565b5b9050919050565b611012816117bc565b611051576040517f08c379a00000000000000000000000000000000000000000000000000000000081526004016110489061286f565b60405180910390fd5b50565b600033905090565b816004600083815260200190815260200160002060006101000a81548173ffffffffffffffffffffffffffffffffffffffff021916908373ffffffffffffffffffffffffffffffffffffffff160217905550808273ffffffffffffffffffffffffffffffffffffffff166110cf83610a22565b73ffffffffffffffffffffffffffffffffffffffff167f8c5be1e5ebec7d5bd14f71427d1e84f3dd0314c0f7b2291e5b200ac8c7c3b92560405160405180910390a45050565b60008061112183610a22565b90508073ffffffffffffffffffffffffffffffffffffffff168473ffffffffffffffffffffffffffffffffffffffff16148061116357506111628185610dcb565b5b806111a157508373ffffffffffffffffffffffffffffffffffffffff16611189846106cb565b73ffffffffffffffffffffffffffffffffffffffff16145b91505092915050565b8273ffffffffffffffffffffffffffffffffffffffff166111ca82610a22565b73ffffffffffffffffffffffffffffffffffffffff1614611220576040517f08c379a000000000000000000000000000000000000000000000000000000000815260040161121790612acb565b60405180910390fd5b600073ffffffffffffffffffffffffffffffffffffffff168273ffffffffffffffffffffffffffffffffffffffff161415611290576040517f08c379a000000000000000000000000000000000000000000000000000000000815260040161128790612b5d565b60405180910390fd5b61129b838383611828565b6112a660008261105c565b6001600360008573ffffffffffffffffffffffffffffffffffffffff1673ffffffffffffffffffffffffffffffffffffffff16815260200190815260200160002060008282546112f69190612b7d565b925050819055506001600360008473ffffffffffffffffffffffffffffffffffffffff1673ffffffffffffffffffffffffffffffffffffffff168152602001908152602001600020600082825461134d9190612bb1565b92505081905550816002600083815260200190815260200160002060006101000a81548173ffffffffffffffffffffffffffffffffffffffff021916908373ffffffffffffffffffffffffffffffffffffffff160217905550808273ffffffffffffffffffffffffffffffffffffffff168473ffffffffffffffffffffffffffffffffffffffff167fddf252ad1be2c89b69c2b068fc378daa952ba7f163c4a11628f55a4df523b3ef60405160405180910390a461140c83838361193c565b505050565b8173ffffffffffffffffffffffffffffffffffffffff168373ffffffffffffffffffffffffffffffffffffffff161415611480576040517f08c379a000000000000000000000000000000000000000000000000000000000815260040161147790612c53565b60405180910390fd5b80600560008573ffffffffffffffffffffffffffffffffffffffff1673ffffffffffffffffffffffffffffffffffffffff16815260200190815260200160002060008473ffffffffffffffffffffffffffffffffffffffff1673ffffffffffffffffffffffffffffffffffffffff16815260200190815260200160002060006101000a81548160ff0219169083151502179055508173ffffffffffffffffffffffffffffffffffffffff168373ffffffffffffffffffffffffffffffffffffffff167f17307eab39ab6107e8899845ad3d59bd9653f200f220920489ca2b5937696c31836040516115719190611e92565b60405180910390a3505050565b6115898484846111aa565b61159584848484611941565b6115d4576040517f08c379a00000000000000000000000000000000000000000000000000000000081526004016115cb90612ce5565b60405180910390fd5b50505050565b606060405180602001604052806000815250905090565b60606000821415611639576040518060400160405280600181526020017f3000000000000000000000000000000000000000000000000000000000000000815250905061174d565b600082905060005b6000821461166b57808061165490612a10565b915050600a8261166491906129df565b9150611641565b60008167ffffffffffffffff811115611687576116866121eb565b5b6040519080825280601f01601f1916602001820160405280156116b95781602001600182028036833780820191505090505b5090505b60008514611746576001826116d29190612b7d565b9150600a856116e19190612d05565b60306116ed9190612bb1565b60f81b818381518110611703576117026127f4565b5b60200101907effffffffffffffffffffffffffffffffffffffffffffffffffffffffffffff1916908160001a905350600a8561173f91906129df565b94506116bd565b8093505050505b919050565b60007f01ffc9a7000000000000000000000000000000000000000000000000000000007bffffffffffffffffffffffffffffffffffffffffffffffffffffffff1916827bffffffffffffffffffffffffffffffffffffffffffffffffffffffff1916149050919050565b60008073ffffffffffffffffffffffffffffffffffffffff166002600084815260200190815260200160002060009054906101000a900473ffffffffffffffffffffffffffffffffffffffff1673ffffffffffffffffffffffffffffffffffffffff1614159050919050565b611833838383610f22565b600073ffffffffffffffffffffffffffffffffffffffff168373ffffffffffffffffffffffffffffffffffffffff1614156118765761187181611ad8565b6118b5565b8173ffffffffffffffffffffffffffffffffffffffff168373ffffffffffffffffffffffffffffffffffffffff16146118b4576118b38382611b21565b5b5b600073ffffffffffffffffffffffffffffffffffffffff168273ffffffffffffffffffffffffffffffffffffffff1614156118f8576118f381611c8e565b611937565b8273ffffffffffffffffffffffffffffffffffffffff168273ffffffffffffffffffffffffffffffffffffffff1614611936576119358282611d5f565b5b5b505050565b505050565b60006119628473ffffffffffffffffffffffffffffffffffffffff16610eff565b15611acb578373ffffffffffffffffffffffffffffffffffffffff1663150b7a0261198b611054565b8786866040518563ffffffff1660e01b81526004016119ad9493929190612d8b565b602060405180830381600087803b1580156119c757600080fd5b505af19250505080156119f857506040513d601f19601f820116820180604052508101906119f59190612dec565b60015b611a7b573d8060008114611a28576040519150601f19603f3d011682016040523d82523d6000602084013e611a2d565b606091505b50600081511415611a73576040517f08c379a0000000000000000000000000000000000000000000000000000000008152600401611a6a90612ce5565b60405180910390fd5b805181602001fd5b63150b7a0260e01b7bffffffffffffffffffffffffffffffffffffffffffffffffffffffff1916817bffffffffffffffffffffffffffffffffffffffffffffffffffffffff191614915050611ad0565b600190505b949350505050565b6008805490506009600083815260200190815260200160002081905550600881908060018154018082558091505060019003906000526020600020016000909190919091505550565b60006001611b2e84610ad4565b611b389190612b7d565b9050600060076000848152602001908152602001600020549050818114611c1d576000600660008673ffffffffffffffffffffffffffffffffffffffff1673ffffffffffffffffffffffffffffffffffffffff168152602001908152602001600020600084815260200190815260200160002054905080600660008773ffffffffffffffffffffffffffffffffffffffff1673ffffffffffffffffffffffffffffffffffffffff168152602001908152602001600020600084815260200190815260200160002081905550816007600083815260200190815260200160002081905550505b6007600084815260200190815260200160002060009055600660008573ffffffffffffffffffffffffffffffffffffffff1673ffffffffffffffffffffffffffffffffffffffff16815260200190815260200160002060008381526020019081526020016000206000905550505050565b60006001600880549050611ca29190612b7d565b9050600060096000848152602001908152602001600020549050600060088381548110611cd257611cd16127f4565b5b906000526020600020015490508060088381548110611cf457611cf36127f4565b5b906000526020600020018190555081600960008381526020019081526020016000208190555060096000858152602001908152602001600020600090556008805480611d4357611d42612e19565b5b6001900381819060005260206000200160009055905550505050565b6000611d6a83610ad4565b905081600660008573ffffffffffffffffffffffffffffffffffffffff1673ffffffffffffffffffffffffffffffffffffffff168152602001908152602001600020600083815260200190815260200160002081905550806007600084815260200190815260200160002081905550505050565b6000604051905090565b600080fd5b600080fd5b60007fffffffff0000000000000000000000000000000000000000000000000000000082169050919050565b611e2781611df2565b8114611e3257600080fd5b50565b600081359050611e4481611e1e565b92915050565b600060208284031215611e6057611e5f611de8565b5b6000611e6e84828501611e35565b91505092915050565b60008115159050919050565b611e8c81611e77565b82525050565b6000602082019050611ea76000830184611e83565b92915050565b600073ffffffffffffffffffffffffffffffffffffffff82169050919050565b6000611ed882611ead565b9050919050565b611ee881611ecd565b82525050565b6000602082019050611f036000830184611edf565b92915050565b600081519050919050565b600082825260208201905092915050565b60005b83811015611f43578082015181840152602081019050611f28565b83811115611f52576000848401525b50505050565b6000601f19601f8301169050919050565b6000611f7482611f09565b611f7e8185611f14565b9350611f8e818560208601611f25565b611f9781611f58565b840191505092915050565b60006020820190508181036000830152611fbc8184611f69565b905092915050565b6000819050919050565b611fd781611fc4565b8114611fe257600080fd5b50565b600081359050611ff481611fce565b92915050565b6000602082840312156120105761200f611de8565b5b600061201e84828501611fe5565b91505092915050565b61203081611ecd565b811461203b57600080fd5b50565b60008135905061204d81612027565b92915050565b6000806040838503121561206a57612069611de8565b5b60006120788582860161203e565b925050602061208985828601611fe5565b9150509250929050565b61209c81611fc4565b82525050565b60006020820190506120b76000830184612093565b92915050565b6000806000606084860312156120d6576120d5611de8565b5b60006120e48682870161203e565b93505060206120f58682870161203e565b925050604061210686828701611fe5565b9150509250925092565b600061ffff82169050919050565b61212781612110565b82525050565b6000602082019050612142600083018461211e565b92915050565b60006020828403121561215e5761215d611de8565b5b600061216c8482850161203e565b91505092915050565b61217e81611e77565b811461218957600080fd5b50565b60008135905061219b81612175565b92915050565b600080604083850312156121b8576121b7611de8565b5b60006121c68582860161203e565b92505060206121d78582860161218c565b9150509250929050565b600080fd5b600080fd5b7f4e487b7100000000000000000000000000000000000000000000000000000000600052604160045260246000fd5b61222382611f58565b810181811067ffffffffffffffff82111715612242576122416121eb565b5b80604052505050565b6000612255611dde565b9050612261828261221a565b919050565b600067ffffffffffffffff821115612281576122806121eb565b5b61228a82611f58565b9050602081019050919050565b82818337600083830152505050565b60006122b96122b484612266565b61224b565b9050828152602081018484840111156122d5576122d46121e6565b5b6122e0848285612297565b509392505050565b600082601f8301126122fd576122fc6121e1565b5b813561230d8482602086016122a6565b91505092915050565b600080600080608085870312156123305761232f611de8565b5b600061233e8782880161203e565b945050602061234f8782880161203e565b935050604061236087828801611fe5565b925050606085013567ffffffffffffffff81111561238157612380611ded565b5b61238d878288016122e8565b91505092959194509250565b600081519050919050565b600082825260208201905092915050565b6000819050602082019050919050565b6123ce81611ecd565b82525050565b60006123e083836123c5565b60208301905092915050565b6000602082019050919050565b600061240482612399565b61240e81856123a4565b9350612419836123b5565b8060005b8381101561244a57815161243188826123d4565b975061243c836123ec565b92505060018101905061241d565b5085935050505092915050565b6000602082019050818103600083015261247181846123f9565b905092915050565b600080604083850312156124905761248f611de8565b5b600061249e8582860161203e565b92505060206124af8582860161203e565b9150509250929050565b7f4e487b7100000000000000000000000000000000000000000000000000000000600052602260045260246000fd5b6000600282049050600182168061250057607f821691505b60208210811415612514576125136124b9565b5b50919050565b7f4552433732313a20617070726f76616c20746f2063757272656e74206f776e6560008201527f7200000000000000000000000000000000000000000000000000000000000000602082015250565b6000612576602183611f14565b91506125818261251a565b604082019050919050565b600060208201905081810360008301526125a581612569565b9050919050565b7f4552433732313a20617070726f76652063616c6c6572206973206e6f7420746f60008201527f6b656e206f776e6572206e6f7220617070726f76656420666f7220616c6c0000602082015250565b6000612608603e83611f14565b9150612613826125ac565b604082019050919050565b60006020820190508181036000830152612637816125fb565b9050919050565b7f4552433732313a2063616c6c6572206973206e6f7420746f6b656e206f776e6560008201527f72206e6f7220617070726f766564000000000000000000000000000000000000602082015250565b600061269a602e83611f14565b91506126a58261263e565b604082019050919050565b600060208201905081810360008301526126c98161268d565b9050919050565b7f455243373231456e756d657261626c653a206f776e657220696e646578206f7560008201527f74206f6620626f756e6473000000000000000000000000000000000000000000602082015250565b600061272c602b83611f14565b9150612737826126d0565b604082019050919050565b6000602082019050818103600083015261275b8161271f565b9050919050565b7f455243373231456e756d657261626c653a20676c6f62616c20696e646578206f60008201527f7574206f6620626f756e64730000000000000000000000000000000000000000602082015250565b60006127be602c83611f14565b91506127c982612762565b604082019050919050565b600060208201905081810360008301526127ed816127b1565b9050919050565b7f4e487b7100000000000000000000000000000000000000000000000000000000600052603260045260246000fd5b7f4552433732313a20696e76616c696420746f6b656e2049440000000000000000600082015250565b6000612859601883611f14565b915061286482612823565b602082019050919050565b600060208201905081810360008301526128888161284c565b9050919050565b7f4552433732313a2061646472657373207a65726f206973206e6f74206120766160008201527f6c6964206f776e65720000000000000000000000000000000000000000000000602082015250565b60006128eb602983611f14565b91506128f68261288f565b604082019050919050565b6000602082019050818103600083015261291a816128de565b9050919050565b600081905092915050565b600061293782611f09565b6129418185612921565b9350612951818560208601611f25565b80840191505092915050565b6000612969828561292c565b9150612975828461292c565b91508190509392505050565b7f4e487b7100000000000000000000000000000000000000000000000000000000600052601260045260246000fd5b7f4e487b7100000000000000000000000000000000000000000000000000000000600052601160045260246000fd5b60006129ea82611fc4565b91506129f583611fc4565b925082612a0557612a04612981565b5b828204905092915050565b6000612a1b82611fc4565b91507fffffffffffffffffffffffffffffffffffffffffffffffffffffffffffffffff821415612a4e57612a4d6129b0565b5b600182019050919050565b7f4552433732313a207472616e736665722066726f6d20696e636f72726563742060008201527f6f776e6572000000000000000000000000000000000000000000000000000000602082015250565b6000612ab5602583611f14565b9150612ac082612a59565b604082019050919050565b60006020820190508181036000830152612ae481612aa8565b9050919050565b7f4552433732313a207472616e7366657220746f20746865207a65726f2061646460008201527f7265737300000000000000000000000000000000000000000000000000000000602082015250565b6000612b47602483611f14565b9150612b5282612aeb565b604082019050919050565b60006020820190508181036000830152612b7681612b3a565b9050919050565b6000612b8882611fc4565b9150612b9383611fc4565b925082821015612ba657612ba56129b0565b5b828203905092915050565b6000612bbc82611fc4565b9150612bc783611fc4565b9250827fffffffffffffffffffffffffffffffffffffffffffffffffffffffffffffffff03821115612bfc57612bfb6129b0565b5b828201905092915050565b7f4552433732313a20617070726f766520746f2063616c6c657200000000000000600082015250565b6000612c3d601983611f14565b9150612c4882612c07565b602082019050919050565b60006020820190508181036000830152612c6c81612c30565b9050919050565b7f4552433732313a207472616e7366657220746f206e6f6e20455243373231526560008201527f63656976657220696d706c656d656e7465720000000000000000000000000000602082015250565b6000612ccf603283611f14565b9150612cda82612c73565b604082019050919050565b60006020820190508181036000830152612cfe81612cc2565b9050919050565b6000612d1082611fc4565b9150612d1b83611fc4565b925082612d2b57612d2a612981565b5b828206905092915050565b600081519050919050565b600082825260208201905092915050565b6000612d5d82612d36565b612d678185612d41565b9350612d77818560208601611f25565b612d8081611f58565b840191505092915050565b6000608082019050612da06000830187611edf565b612dad6020830186611edf565b612dba6040830185612093565b8181036060830152612dcc8184612d52565b905095945050505050565b600081519050612de681611e1e565b92915050565b600060208284031215612e0257612e01611de8565b5b6000612e1084828501612dd7565b91505092915050565b7f4e487b7100000000000000000000000000000000000000000000000000000000600052603160045260246000fdfea2646970667358221220716729f1f20096c664fd3af08cfa9b0a9b2d88c8c194e18932b65797913e9d5764736f6c63430008090033",
  "linkReferences": {},
  "deployedLinkReferences": {}
}