{
  "_format": "hh-sol-artifact-1",
  "contractName": "SidechainERC721",
  "sourceName": "contracts/SidechainERC721.sol",
  "abi": [
    {
      "inputs": [
        {
          "internalType": "address",
          "name": "_creator",
          "type": "address"
        },
        {
          "internalType": "address[]",
          "name": "_parents",
          "type": "address[]"
        },
        {
          "internalType": "uint16",
          "name": "_REV",
          "type": "uint16"
        },
        {
          "internalType": "string",
          "name": "_baseTokenURI",
          "type": "string"
        }
      ],
      "stateMutability": "nonpayable",
      "type": "constructor"
    },
    {
      "anonymous": false,
      "inputs": [
        {
          "indexed": true,
          "internalType": "address",
          "name": "owner",
          "type": "address"
        },
        {
          "indexed": true,
          "internalType": "address",
          "name": "approved",
          "type": "address"
        },
        {
          "indexed": true,
          "internalType": "uint256",
          "name": "tokenId",
          "type": "uint256"
        }
      ],
      "name": "Approval",
      "type": "event"
    },
    {
      "anonymous": false,
      "inputs": [
        {
          "indexed": true,
          "internalType": "address",
          "name": "owner",
          "type": "address"
        },
        {
          "indexed": true,
          "internalType": "address",
          "name": "operator",
          "type": "address"
        },
        {
          "indexed": false,
          "internalType": "bool",
          "name": "approved",
          "type": "bool"
        }
      ],
      "name": "ApprovalForAll",
      "type": "event"
    },
    {
      "anonymous": false,
      "inputs": [
        {
          "indexed": false,
          "internalType": "address",
          "name": "newAddress",
          "type": "address"
        }
      ],
      "name": "SidechainCreated",
      "type": "event"
    },
    {
      "anonymous": false,
      "inputs": [
        {
          "indexed": true,
          "internalType": "address",
          "name": "from",
          "type": "address"
        },
        {
          "indexed": true,
          "internalType": "address",
          "name": "to",
          "type": "address"
        },
        {
          "indexed": true,
          "internalType": "uint256",
          "name": "tokenId",
          "type": "uint256"
        }
      ],
      "name": "Transfer",
      "type": "event"
    },
    {
      "inputs": [],
      "name": "REV",
      "outputs": [
        {
          "internalType": "uint16",
          "name": "",
          "type": "uint16"
        }
      ],
      "stateMutability": "view",
      "type": "function"
    },
    {
      "inputs": [
        {
          "internalType": "address",
          "name": "to",
          "type": "address"
        },
        {
          "internalType": "uint256",
          "name": "tokenId",
          "type": "uint256"
        }
      ],
      "name": "approve",
      "outputs": [],
      "stateMutability": "nonpayable",
      "type": "function"
    },
    {
      "inputs": [
        {
          "internalType": "address",
          "name": "owner",
          "type": "address"
        }
      ],
      "name": "balanceOf",
      "outputs": [
        {
          "internalType": "uint256",
          "name": "",
          "type": "uint256"
        }
      ],
      "stateMutability": "view",
      "type": "function"
    },
    {
      "inputs": [],
      "name": "copyrightPayment",
      "outputs": [],
      "stateMutability": "payable",
      "type": "function"
    },
    {
      "inputs": [],
      "name": "creator",
      "outputs": [
        {
          "internalType": "address",
          "name": "",
          "type": "address"
        }
      ],
      "stateMutability": "view",
      "type": "function"
    },
    {
      "inputs": [
        {
          "internalType": "uint256",
          "name": "tokenId",
          "type": "uint256"
        }
      ],
      "name": "getApproved",
      "outputs": [
        {
          "internalType": "address",
          "name": "",
          "type": "address"
        }
      ],
      "stateMutability": "view",
      "type": "function"
    },
    {
      "inputs": [],
      "name": "getCreator",
      "outputs": [
        {
          "internalType": "address",
          "name": "",
          "type": "address"
        }
      ],
      "stateMutability": "view",
      "type": "function"
    },
    {
      "inputs": [],
      "name": "getParents",
      "outputs": [
        {
          "internalType": "address[]",
          "name": "",
          "type": "address[]"
        }
      ],
      "stateMutability": "view",
      "type": "function"
    },
    {
      "inputs": [],
      "name": "getREV",
      "outputs": [
        {
          "internalType": "uint16",
          "name": "",
          "type": "uint16"
        }
      ],
      "stateMutability": "view",
      "type": "function"
    },
    {
      "inputs": [
        {
          "internalType": "address",
          "name": "owner",
          "type": "address"
        },
        {
          "internalType": "address",
          "name": "operator",
          "type": "address"
        }
      ],
      "name": "isApprovedForAll",
      "outputs": [
        {
          "internalType": "bool",
          "name": "",
          "type": "bool"
        }
      ],
      "stateMutability": "view",
      "type": "function"
    },
    {
      "inputs": [],
      "name": "name",
      "outputs": [
        {
          "internalType": "string",
          "name": "",
          "type": "string"
        }
      ],
      "stateMutability": "view",
      "type": "function"
    },
    {
      "inputs": [
        {
          "internalType": "uint256",
          "name": "tokenId",
          "type": "uint256"
        }
      ],
      "name": "ownerOf",
      "outputs": [
        {
          "internalType": "address",
          "name": "",
          "type": "address"
        }
      ],
      "stateMutability": "view",
      "type": "function"
    },
    {
      "inputs": [
        {
          "internalType": "uint256",
          "name": "",
          "type": "uint256"
        }
      ],
      "name": "parents",
      "outputs": [
        {
          "internalType": "address",
          "name": "",
          "type": "address"
        }
      ],
      "stateMutability": "view",
      "type": "function"
    },
    {
      "inputs": [
        {
          "internalType": "address",
          "name": "from",
          "type": "address"
        },
        {
          "internalType": "address",
          "name": "to",
          "type": "address"
        },
        {
          "internalType": "uint256",
          "name": "tokenId",
          "type": "uint256"
        }
      ],
      "name": "safeTransferFrom",
      "outputs": [],
      "stateMutability": "nonpayable",
      "type": "function"
    },
    {
      "inputs": [
        {
          "internalType": "address",
          "name": "from",
          "type": "address"
        },
        {
          "internalType": "address",
          "name": "to",
          "type": "address"
        },
        {
          "internalType": "uint256",
          "name": "tokenId",
          "type": "uint256"
        },
        {
          "internalType": "bytes",
          "name": "data",
          "type": "bytes"
        }
      ],
      "name": "safeTransferFrom",
      "outputs": [],
      "stateMutability": "nonpayable",
      "type": "function"
    },
    {
      "inputs": [
        {
          "internalType": "address",
          "name": "operator",
          "type": "address"
        },
        {
          "internalType": "bool",
          "name": "approved",
          "type": "bool"
        }
      ],
      "name": "setApprovalForAll",
      "outputs": [],
      "stateMutability": "nonpayable",
      "type": "function"
    },
    {
      "inputs": [
        {
          "internalType": "bytes4",
          "name": "interfaceId",
          "type": "bytes4"
        }
      ],
      "name": "supportsInterface",
      "outputs": [
        {
          "internalType": "bool",
          "name": "",
          "type": "bool"
        }
      ],
      "stateMutability": "view",
      "type": "function"
    },
    {
      "inputs": [],
      "name": "symbol",
      "outputs": [
        {
          "internalType": "string",
          "name": "",
          "type": "string"
        }
      ],
      "stateMutability": "view",
      "type": "function"
    },
    {
      "inputs": [
        {
          "internalType": "uint256",
          "name": "index",
          "type": "uint256"
        }
      ],
      "name": "tokenByIndex",
      "outputs": [
        {
          "internalType": "uint256",
          "name": "",
          "type": "uint256"
        }
      ],
      "stateMutability": "view",
      "type": "function"
    },
    {
      "inputs": [
        {
          "internalType": "address",
          "name": "owner",
          "type": "address"
        },
        {
          "internalType": "uint256",
          "name": "index",
          "type": "uint256"
        }
      ],
      "name": "tokenOfOwnerByIndex",
      "outputs": [
        {
          "internalType": "uint256",
          "name": "",
          "type": "uint256"
        }
      ],
      "stateMutability": "view",
      "type": "function"
    },
    {
      "inputs": [
        {
          "internalType": "uint256",
          "name": "tokenId",
          "type": "uint256"
        }
      ],
      "name": "tokenURI",
      "outputs": [
        {
          "internalType": "string",
          "name": "",
          "type": "string"
        }
      ],
      "stateMutability": "view",
      "type": "function"
    },
    {
      "inputs": [],
      "name": "totalSupply",
      "outputs": [
        {
          "internalType": "uint256",
          "name": "",
          "type": "uint256"
        }
      ],
      "stateMutability": "view",
      "type": "function"
    },
    {
      "inputs": [
        {
          "internalType": "address",
          "name": "from",
          "type": "address"
        },
        {
          "internalType": "address",
          "name": "to",
          "type": "address"
        },
        {
          "internalType": "uint256",
          "name": "tokenId",
          "type": "uint256"
        }
      ],
      "name": "transferFrom",
      "outputs": [],
      "stateMutability": "nonpayable",
      "type": "function"
    }
  ],
  "bytecode": "0x60806040526064600c60026101000a81548161ffff021916908361ffff1602179055506000600c60046101000a81548161ffff021916908361ffff1602179055503480156200004d57600080fd5b5060405162004de738038062004de783398181016040528101906200007391906200167a565b6040518060400160405280600981526020017f53696465636861696e00000000000000000000000000000000000000000000008152506040518060400160405280600481526020017f5344434e000000000000000000000000000000000000000000000000000000008152508160009080519060200190620000f79291906200121f565b508060019080519060200190620001109291906200121f565b505050600c60029054906101000a900461ffff1661ffff168261ffff16111562000171576040517f08c379a000000000000000000000000000000000000000000000000000000000815260040162000168906200178b565b60405180910390fd5b82600b908051906020019062000189929190620012b0565b5081600c60006101000a81548161ffff021916908361ffff16021790555083600a60006101000a81548173ffffffffffffffffffffffffffffffffffffffff021916908373ffffffffffffffffffffffffffffffffffffffff16021790555080600d9080519060200190620002009291906200121f565b506000600c60029054906101000a900461ffff1661ffff1667ffffffffffffffff811115620002345762000233620013ed565b5b604051908082528060200260200182016040528015620002635781602001602082028036833780820191505090505b5090506200027881856200057160201b60201c565b600c60029054906101000a900461ffff1661ffff166200029e82620006f660201b60201c565b61ffff161115620002e6576040517f08c379a0000000000000000000000000000000000000000000000000000000008152600401620002dd9062001823565b60405180910390fd5b600080600090505b600c60049054906101000a900461ffff1661ffff168161ffff161015620004ae576000838261ffff16815181106200032b576200032a62001845565b5b6020026020010151905062000345620007f960201b60201c565b925060005b8173ffffffffffffffffffffffffffffffffffffffff16633360d60f6040518163ffffffff1660e01b815260040160206040518083038186803b1580156200039157600080fd5b505afa158015620003a6573d6000803e3d6000fd5b505050506040513d601f19601f82011682018060405250810190620003cc919062001874565b61ffff168161ffff1610156200049657620004808273ffffffffffffffffffffffffffffffffffffffff16630ee2cb106040518163ffffffff1660e01b815260040160206040518083038186803b1580156200042757600080fd5b505afa1580156200043c573d6000803e3d6000fd5b505050506040513d601f19601f82011682018060405250810190620004629190620018a6565b8261ffff168662000474919062001911565b6200080660201b60201c565b80806200048d906200196e565b9150506200034a565b50508080620004a5906200196e565b915050620002ee565b50620004bf620007f960201b60201c565b905060005b81600c60029054906101000a900461ffff1661ffff16620004e691906200199e565b8161ffff1610156200052b5762000515878261ffff168462000509919062001911565b6200080660201b60201c565b808062000522906200196e565b915050620004c4565b507ffe1961788bdd8ba6a4419836c26511999971fea9861b1f130c759e998b7d6ee9306040516200055d9190620019ea565b60405180910390a150505050505062001ede565b60005b8151811015620006f157600082828151811062000596576200059562001845565b5b602002602001015190508084600c60049054906101000a900461ffff1661ffff1681518110620005cb57620005ca62001845565b5b602002602001019073ffffffffffffffffffffffffffffffffffffffff16908173ffffffffffffffffffffffffffffffffffffffff1681525050600c600481819054906101000a900461ffff168092919062000627906200196e565b91906101000a81548161ffff021916908361ffff16021790555050620006da848273ffffffffffffffffffffffffffffffffffffffff1663dd6133b56040518163ffffffff1660e01b815260040160006040518083038186803b1580156200068e57600080fd5b505afa158015620006a3573d6000803e3d6000fd5b505050506040513d6000823e3d601f19601f82011682018060405250810190620006ce919062001a07565b6200057160201b60201c565b508080620006e89062001a58565b91505062000574565b505050565b6000806000905060005b600c60049054906101000a900461ffff1661ffff168161ffff161015620007ef576000848261ffff16815181106200073d576200073c62001845565b5b602002602001015190508073ffffffffffffffffffffffffffffffffffffffff16633360d60f6040518163ffffffff1660e01b815260040160206040518083038186803b1580156200078e57600080fd5b505afa158015620007a3573d6000803e3d6000fd5b505050506040513d601f19601f82011682018060405250810190620007c9919062001874565b83620007d6919062001aa6565b9250508080620007e6906200196e565b91505062000700565b5080915050919050565b6000600880549050905090565b620008288282604051806020016040528060008152506200082c60201b60201c565b5050565b6200083e83836200089a60201b60201c565b62000853600084848462000a9460201b60201c565b62000895576040517f08c379a00000000000000000000000000000000000000000000000000000000081526004016200088c9062001b5b565b60405180910390fd5b505050565b600073ffffffffffffffffffffffffffffffffffffffff168273ffffffffffffffffffffffffffffffffffffffff1614156200090d576040517f08c379a0000000000000000000000000000000000000000000000000000000008152600401620009049062001bcd565b60405180910390fd5b6200091e8162000c4e60201b60201c565b1562000961576040517f08c379a0000000000000000000000000000000000000000000000000000000008152600401620009589062001c3f565b60405180910390fd5b620009756000838362000cba60201b60201c565b6001600360008473ffffffffffffffffffffffffffffffffffffffff1673ffffffffffffffffffffffffffffffffffffffff1681526020019081526020016000206000828254620009c7919062001911565b92505081905550816002600083815260200190815260200160002060006101000a81548173ffffffffffffffffffffffffffffffffffffffff021916908373ffffffffffffffffffffffffffffffffffffffff160217905550808273ffffffffffffffffffffffffffffffffffffffff16600073ffffffffffffffffffffffffffffffffffffffff167fddf252ad1be2c89b69c2b068fc378daa952ba7f163c4a11628f55a4df523b3ef60405160405180910390a462000a906000838362000e0160201b60201c565b5050565b600062000ac28473ffffffffffffffffffffffffffffffffffffffff1662000e0660201b62000eff1760201c565b1562000c41578373ffffffffffffffffffffffffffffffffffffffff1663150b7a0262000af462000e2960201b60201c565b8786866040518563ffffffff1660e01b815260040162000b18949392919062001ccf565b602060405180830381600087803b15801562000b3357600080fd5b505af192505050801562000b6757506040513d601f19601f8201168201806040525081019062000b64919062001d80565b60015b62000bf0573d806000811462000b9a576040519150601f19603f3d011682016040523d82523d6000602084013e62000b9f565b606091505b5060008151141562000be8576040517f08c379a000000000000000000000000000000000000000000000000000000000815260040162000bdf9062001b5b565b60405180910390fd5b805181602001fd5b63150b7a0260e01b7bffffffffffffffffffffffffffffffffffffffffffffffffffffffff1916817bffffffffffffffffffffffffffffffffffffffffffffffffffffffff19161491505062000c46565b600190505b949350505050565b60008073ffffffffffffffffffffffffffffffffffffffff166002600084815260200190815260200160002060009054906101000a900473ffffffffffffffffffffffffffffffffffffffff1673ffffffffffffffffffffffffffffffffffffffff1614159050919050565b62000cd283838362000e3160201b62000f221760201c565b600073ffffffffffffffffffffffffffffffffffffffff168373ffffffffffffffffffffffffffffffffffffffff16141562000d1f5762000d198162000e3660201b60201c565b62000d67565b8173ffffffffffffffffffffffffffffffffffffffff168373ffffffffffffffffffffffffffffffffffffffff161462000d665762000d65838262000e7f60201b60201c565b5b5b600073ffffffffffffffffffffffffffffffffffffffff168273ffffffffffffffffffffffffffffffffffffffff16141562000db45762000dae8162000ffc60201b60201c565b62000dfc565b8273ffffffffffffffffffffffffffffffffffffffff168273ffffffffffffffffffffffffffffffffffffffff161462000dfb5762000dfa8282620010d860201b60201c565b5b5b505050565b505050565b6000808273ffffffffffffffffffffffffffffffffffffffff163b119050919050565b600033905090565b505050565b6008805490506009600083815260200190815260200160002081905550600881908060018154018082558091505060019003906000526020600020016000909190919091505550565b6000600162000e99846200116460201b62000ad41760201c565b62000ea591906200199e565b905060006007600084815260200190815260200160002054905081811462000f8b576000600660008673ffffffffffffffffffffffffffffffffffffffff1673ffffffffffffffffffffffffffffffffffffffff168152602001908152602001600020600084815260200190815260200160002054905080600660008773ffffffffffffffffffffffffffffffffffffffff1673ffffffffffffffffffffffffffffffffffffffff168152602001908152602001600020600084815260200190815260200160002081905550816007600083815260200190815260200160002081905550505b6007600084815260200190815260200160002060009055600660008573ffffffffffffffffffffffffffffffffffffffff1673ffffffffffffffffffffffffffffffffffffffff16815260200190815260200160002060008381526020019081526020016000206000905550505050565b600060016008805490506200101291906200199e565b905060006009600084815260200190815260200160002054905060006008838154811062001045576200104462001845565b5b9060005260206000200154905080600883815481106200106a576200106962001845565b5b906000526020600020018190555081600960008381526020019081526020016000208190555060096000858152602001908152602001600020600090556008805480620010bc57620010bb62001db2565b5b6001900381819060005260206000200160009055905550505050565b6000620010f0836200116460201b62000ad41760201c565b905081600660008573ffffffffffffffffffffffffffffffffffffffff1673ffffffffffffffffffffffffffffffffffffffff168152602001908152602001600020600083815260200190815260200160002081905550806007600084815260200190815260200160002081905550505050565b60008073ffffffffffffffffffffffffffffffffffffffff168273ffffffffffffffffffffffffffffffffffffffff161415620011d8576040517f08c379a0000000000000000000000000000000000000000000000000000000008152600401620011cf9062001e57565b60405180910390fd5b600360008373ffffffffffffffffffffffffffffffffffffffff1673ffffffffffffffffffffffffffffffffffffffff168152602001908152602001600020549050919050565b8280546200122d9062001ea8565b90600052602060002090601f0160209004810192826200125157600085556200129d565b82601f106200126c57805160ff19168380011785556200129d565b828001600101855582156200129d579182015b828111156200129c5782518255916020019190600101906200127f565b5b509050620012ac91906200133f565b5090565b8280548282559060005260206000209081019282156200132c579160200282015b828111156200132b5782518260006101000a81548173ffffffffffffffffffffffffffffffffffffffff021916908373ffffffffffffffffffffffffffffffffffffffff16021790555091602001919060010190620012d1565b5b5090506200133b91906200133f565b5090565b5b808211156200135a57600081600090555060010162001340565b5090565b6000604051905090565b600080fd5b600080fd5b600073ffffffffffffffffffffffffffffffffffffffff82169050919050565b60006200139f8262001372565b9050919050565b620013b18162001392565b8114620013bd57600080fd5b50565b600081519050620013d181620013a6565b92915050565b600080fd5b6000601f19601f8301169050919050565b7f4e487b7100000000000000000000000000000000000000000000000000000000600052604160045260246000fd5b6200142782620013dc565b810181811067ffffffffffffffff82111715620014495762001448620013ed565b5b80604052505050565b60006200145e6200135e565b90506200146c82826200141c565b919050565b600067ffffffffffffffff8211156200148f576200148e620013ed565b5b602082029050602081019050919050565b600080fd5b6000620014bc620014b68462001471565b62001452565b90508083825260208201905060208402830185811115620014e257620014e1620014a0565b5b835b818110156200150f5780620014fa8882620013c0565b845260208401935050602081019050620014e4565b5050509392505050565b600082601f830112620015315762001530620013d7565b5b815162001543848260208601620014a5565b91505092915050565b600061ffff82169050919050565b62001565816200154c565b81146200157157600080fd5b50565b60008151905062001585816200155a565b92915050565b600080fd5b600067ffffffffffffffff821115620015ae57620015ad620013ed565b5b620015b982620013dc565b9050602081019050919050565b60005b83811015620015e6578082015181840152602081019050620015c9565b83811115620015f6576000848401525b50505050565b6000620016136200160d8462001590565b62001452565b9050828152602081018484840111156200163257620016316200158b565b5b6200163f848285620015c6565b509392505050565b600082601f8301126200165f576200165e620013d7565b5b815162001671848260208601620015fc565b91505092915050565b6000806000806080858703121562001697576200169662001368565b5b6000620016a787828801620013c0565b945050602085015167ffffffffffffffff811115620016cb57620016ca6200136d565b5b620016d98782880162001519565b9350506040620016ec8782880162001574565b925050606085015167ffffffffffffffff81111562001710576200170f6200136d565b5b6200171e8782880162001647565b91505092959194509250565b600082825260208201905092915050565b7f4d6178696d756d20524556203d203130302e0000000000000000000000000000600082015250565b6000620017736012836200172a565b915062001780826200173b565b602082019050919050565b60006020820190508181036000830152620017a68162001764565b9050919050565b7f4e6f7420656e6f756768206571756974792072656d61696e696e6720746f206d60008201527f696e742e00000000000000000000000000000000000000000000000000000000602082015250565b60006200180b6024836200172a565b91506200181882620017ad565b604082019050919050565b600060208201905081810360008301526200183e81620017fc565b9050919050565b7f4e487b7100000000000000000000000000000000000000000000000000000000600052603260045260246000fd5b6000602082840312156200188d576200188c62001368565b5b60006200189d8482850162001574565b91505092915050565b600060208284031215620018bf57620018be62001368565b5b6000620018cf84828501620013c0565b91505092915050565b6000819050919050565b7f4e487b7100000000000000000000000000000000000000000000000000000000600052601160045260246000fd5b60006200191e82620018d8565b91506200192b83620018d8565b9250827fffffffffffffffffffffffffffffffffffffffffffffffffffffffffffffffff03821115620019635762001962620018e2565b5b828201905092915050565b60006200197b826200154c565b915061ffff821415620019935762001992620018e2565b5b600182019050919050565b6000620019ab82620018d8565b9150620019b883620018d8565b925082821015620019ce57620019cd620018e2565b5b828203905092915050565b620019e48162001392565b82525050565b600060208201905062001a016000830184620019d9565b92915050565b60006020828403121562001a205762001a1f62001368565b5b600082015167ffffffffffffffff81111562001a415762001a406200136d565b5b62001a4f8482850162001519565b91505092915050565b600062001a6582620018d8565b91507fffffffffffffffffffffffffffffffffffffffffffffffffffffffffffffffff82141562001a9b5762001a9a620018e2565b5b600182019050919050565b600062001ab3826200154c565b915062001ac0836200154c565b92508261ffff0382111562001ada5762001ad9620018e2565b5b828201905092915050565b7f4552433732313a207472616e7366657220746f206e6f6e20455243373231526560008201527f63656976657220696d706c656d656e7465720000000000000000000000000000602082015250565b600062001b436032836200172a565b915062001b508262001ae5565b604082019050919050565b6000602082019050818103600083015262001b768162001b34565b9050919050565b7f4552433732313a206d696e7420746f20746865207a65726f2061646472657373600082015250565b600062001bb56020836200172a565b915062001bc28262001b7d565b602082019050919050565b6000602082019050818103600083015262001be88162001ba6565b9050919050565b7f4552433732313a20746f6b656e20616c7265616479206d696e74656400000000600082015250565b600062001c27601c836200172a565b915062001c348262001bef565b602082019050919050565b6000602082019050818103600083015262001c5a8162001c18565b9050919050565b62001c6c81620018d8565b82525050565b600081519050919050565b600082825260208201905092915050565b600062001c9b8262001c72565b62001ca7818562001c7d565b935062001cb9818560208601620015c6565b62001cc481620013dc565b840191505092915050565b600060808201905062001ce66000830187620019d9565b62001cf56020830186620019d9565b62001d04604083018562001c61565b818103606083015262001d18818462001c8e565b905095945050505050565b60007fffffffff0000000000000000000000000000000000000000000000000000000082169050919050565b62001d5a8162001d23565b811462001d6657600080fd5b50565b60008151905062001d7a8162001d4f565b92915050565b60006020828403121562001d995762001d9862001368565b5b600062001da98482850162001d69565b91505092915050565b7f4e487b7100000000000000000000000000000000000000000000000000000000600052603160045260246000fd5b7f4552433732313a2061646472657373207a65726f206973206e6f74206120766160008201527f6c6964206f776e65720000000000000000000000000000000000000000000000602082015250565b600062001e3f6029836200172a565b915062001e4c8262001de1565b604082019050919050565b6000602082019050818103600083015262001e728162001e30565b9050919050565b7f4e487b7100000000000000000000000000000000000000000000000000000000600052602260045260246000fd5b6000600282049050600182168062001ec157607f821691505b6020821081141562001ed85762001ed762001e79565b5b50919050565b612ef98062001eee6000396000f3fe6080604052600436106101405760003560e01c806342842e0e116100b6578063a22cb4651161006f578063a22cb46514610498578063b88d4fde146104c1578063c87b56dd146104ea578063dd6133b514610527578063e985e9c514610552578063f87717cf1461058f57610140565b806342842e0e146103505780634f6ccce7146103795780636352211e146103b657806370a08231146103f3578063898572a61461043057806395d89b411461046d57610140565b80630ee2cb10116101085780630ee2cb101461023e57806318160ddd1461026957806323b872dd146102945780632bc89ff6146102bd5780632f745c59146102e85780633360d60f1461032557610140565b806301ffc9a71461014557806302d05d3f1461018257806306fdde03146101ad578063081812fc146101d8578063095ea7b314610215575b600080fd5b34801561015157600080fd5b5061016c60048036038101906101679190611ec5565b610599565b6040516101799190611f0d565b60405180910390f35b34801561018e57600080fd5b50610197610613565b6040516101a49190611f69565b60405180910390f35b3480156101b957600080fd5b506101c2610639565b6040516101cf919061201d565b60405180910390f35b3480156101e457600080fd5b506101ff60048036038101906101fa9190612075565b6106cb565b60405161020c9190611f69565b60405180910390f35b34801561022157600080fd5b5061023c600480360381019061023791906120ce565b610711565b005b34801561024a57600080fd5b50610253610829565b6040516102609190611f69565b60405180910390f35b34801561027557600080fd5b5061027e610853565b60405161028b919061211d565b60405180910390f35b3480156102a057600080fd5b506102bb60048036038101906102b69190612138565b610860565b005b3480156102c957600080fd5b506102d26108c0565b6040516102df91906121a8565b60405180910390f35b3480156102f457600080fd5b5061030f600480360381019061030a91906120ce565b6108d4565b60405161031c919061211d565b60405180910390f35b34801561033157600080fd5b5061033a610979565b60405161034791906121a8565b60405180910390f35b34801561035c57600080fd5b5061037760048036038101906103729190612138565b610991565b005b34801561038557600080fd5b506103a0600480360381019061039b9190612075565b6109b1565b6040516103ad919061211d565b60405180910390f35b3480156103c257600080fd5b506103dd60048036038101906103d89190612075565b610a22565b6040516103ea9190611f69565b60405180910390f35b3480156103ff57600080fd5b5061041a600480360381019061041591906121c3565b610ad4565b604051610427919061211d565b60405180910390f35b34801561043c57600080fd5b5061045760048036038101906104529190612075565b610b8c565b6040516104649190611f69565b60405180910390f35b34801561047957600080fd5b50610482610bcb565b60405161048f919061201d565b60405180910390f35b3480156104a457600080fd5b506104bf60048036038101906104ba919061221c565b610c5d565b005b3480156104cd57600080fd5b506104e860048036038101906104e39190612391565b610c73565b005b3480156104f657600080fd5b50610511600480360381019061050c9190612075565b610cd5565b60405161051e919061201d565b60405180910390f35b34801561053357600080fd5b5061053c610d3d565b60405161054991906124d2565b60405180910390f35b34801561055e57600080fd5b50610579600480360381019061057491906124f4565b610dcb565b6040516105869190611f0d565b60405180910390f35b610597610e5f565b005b60007f780e9d63000000000000000000000000000000000000000000000000000000007bffffffffffffffffffffffffffffffffffffffffffffffffffffffff1916827bffffffffffffffffffffffffffffffffffffffffffffffffffffffff1916148061060c575061060b82610f27565b5b9050919050565b600a60009054906101000a900473ffffffffffffffffffffffffffffffffffffffff1681565b60606000805461064890612563565b80601f016020809104026020016040519081016040528092919081815260200182805461067490612563565b80156106c15780601f10610696576101008083540402835291602001916106c1565b820191906000526020600020905b8154815290600101906020018083116106a457829003601f168201915b5050505050905090565b60006106d682611009565b6004600083815260200190815260200160002060009054906101000a900473ffffffffffffffffffffffffffffffffffffffff169050919050565b600061071c82610a22565b90508073ffffffffffffffffffffffffffffffffffffffff168373ffffffffffffffffffffffffffffffffffffffff16141561078d576040517f08c379a000000000000000000000000000000000000000000000000000000000815260040161078490612607565b60405180910390fd5b8073ffffffffffffffffffffffffffffffffffffffff166107ac611054565b73ffffffffffffffffffffffffffffffffffffffff1614806107db57506107da816107d5611054565b610dcb565b5b61081a576040517f08c379a000000000000000000000000000000000000000000000000000000000815260040161081190612699565b60405180910390fd5b610824838361105c565b505050565b6000600a60009054906101000a900473ffffffffffffffffffffffffffffffffffffffff16905090565b6000600880549050905090565b61087161086b611054565b82611115565b6108b0576040517f08c379a00000000000000000000000000000000000000000000000000000000081526004016108a79061272b565b60405180910390fd5b6108bb8383836111aa565b505050565b600c60009054906101000a900461ffff1681565b60006108df83610ad4565b8210610920576040517f08c379a0000000000000000000000000000000000000000000000000000000008152600401610917906127bd565b60405180910390fd5b600660008473ffffffffffffffffffffffffffffffffffffffff1673ffffffffffffffffffffffffffffffffffffffff168152602001908152602001600020600083815260200190815260200160002054905092915050565b6000600c60009054906101000a900461ffff16905090565b6109ac83838360405180602001604052806000815250610c73565b505050565b60006109bb610853565b82106109fc576040517f08c379a00000000000000000000000000000000000000000000000000000000081526004016109f39061284f565b60405180910390fd5b60088281548110610a1057610a0f61286f565b5b90600052602060002001549050919050565b6000806002600084815260200190815260200160002060009054906101000a900473ffffffffffffffffffffffffffffffffffffffff169050600073ffffffffffffffffffffffffffffffffffffffff168173ffffffffffffffffffffffffffffffffffffffff161415610acb576040517f08c379a0000000000000000000000000000000000000000000000000000000008152600401610ac2906128ea565b60405180910390fd5b80915050919050565b60008073ffffffffffffffffffffffffffffffffffffffff168273ffffffffffffffffffffffffffffffffffffffff161415610b45576040517f08c379a0000000000000000000000000000000000000000000000000000000008152600401610b3c9061297c565b60405180910390fd5b600360008373ffffffffffffffffffffffffffffffffffffffff1673ffffffffffffffffffffffffffffffffffffffff168152602001908152602001600020549050919050565b600b8181548110610b9c57600080fd5b906000526020600020016000915054906101000a900473ffffffffffffffffffffffffffffffffffffffff1681565b606060018054610bda90612563565b80601f0160208091040260200160405190810160405280929190818152602001828054610c0690612563565b8015610c535780601f10610c2857610100808354040283529160200191610c53565b820191906000526020600020905b815481529060010190602001808311610c3657829003601f168201915b5050505050905090565b610c6f610c68611054565b8383611411565b5050565b610c84610c7e611054565b83611115565b610cc3576040517f08c379a0000000000000000000000000000000000000000000000000000000008152600401610cba9061272b565b60405180910390fd5b610ccf8484848461157e565b50505050565b6060610ce082611009565b6000610cea6115da565b90506000815111610d0a5760405180602001604052806000815250610d35565b80610d148461166c565b604051602001610d259291906129d8565b6040516020818303038152906040525b915050919050565b6060600b805480602002602001604051908101604052809291908181526020018280548015610dc157602002820191906000526020600020905b8160009054906101000a900473ffffffffffffffffffffffffffffffffffffffff1673ffffffffffffffffffffffffffffffffffffffff1681526020019060010190808311610d77575b5050505050905090565b6000600560008473ffffffffffffffffffffffffffffffffffffffff1673ffffffffffffffffffffffffffffffffffffffff16815260200190815260200160002060008373ffffffffffffffffffffffffffffffffffffffff1673ffffffffffffffffffffffffffffffffffffffff16815260200190815260200160002060009054906101000a900460ff16905092915050565b6000600c60029054906101000a900461ffff1661ffff1634610e819190612a5a565b905060005b600c60029054906101000a900461ffff1661ffff16811015610efb57610eab81610a22565b73ffffffffffffffffffffffffffffffffffffffff166108fc839081150290604051600060405180830381858888f19350505050610ee857600080fd5b8080610ef390612a8b565b915050610e86565b5050565b6000808273ffffffffffffffffffffffffffffffffffffffff163b119050919050565b505050565b60007f80ac58cd000000000000000000000000000000000000000000000000000000007bffffffffffffffffffffffffffffffffffffffffffffffffffffffff1916827bffffffffffffffffffffffffffffffffffffffffffffffffffffffff19161480610ff257507f5b5e139f000000000000000000000000000000000000000000000000000000007bffffffffffffffffffffffffffffffffffffffffffffffffffffffff1916827bffffffffffffffffffffffffffffffffffffffffffffffffffffffff1916145b806110025750611001826117cd565b5b9050919050565b61101281611837565b611051576040517f08c379a0000000000000000000000000000000000000000000000000000000008152600401611048906128ea565b60405180910390fd5b50565b600033905090565b816004600083815260200190815260200160002060006101000a81548173ffffffffffffffffffffffffffffffffffffffff021916908373ffffffffffffffffffffffffffffffffffffffff160217905550808273ffffffffffffffffffffffffffffffffffffffff166110cf83610a22565b73ffffffffffffffffffffffffffffffffffffffff167f8c5be1e5ebec7d5bd14f71427d1e84f3dd0314c0f7b2291e5b200ac8c7c3b92560405160405180910390a45050565b60008061112183610a22565b90508073ffffffffffffffffffffffffffffffffffffffff168473ffffffffffffffffffffffffffffffffffffffff16148061116357506111628185610dcb565b5b806111a157508373ffffffffffffffffffffffffffffffffffffffff16611189846106cb565b73ffffffffffffffffffffffffffffffffffffffff16145b91505092915050565b8273ffffffffffffffffffffffffffffffffffffffff166111ca82610a22565b73ffffffffffffffffffffffffffffffffffffffff1614611220576040517f08c379a000000000000000000000000000000000000000000000000000000000815260040161121790612b46565b60405180910390fd5b600073ffffffffffffffffffffffffffffffffffffffff168273ffffffffffffffffffffffffffffffffffffffff161415611290576040517f08c379a000000000000000000000000000000000000000000000000000000000815260040161128790612bd8565b60405180910390fd5b61129b8383836118a3565b6112a660008261105c565b6001600360008573ffffffffffffffffffffffffffffffffffffffff1673ffffffffffffffffffffffffffffffffffffffff16815260200190815260200160002060008282546112f69190612bf8565b925050819055506001600360008473ffffffffffffffffffffffffffffffffffffffff1673ffffffffffffffffffffffffffffffffffffffff168152602001908152602001600020600082825461134d9190612c2c565b92505081905550816002600083815260200190815260200160002060006101000a81548173ffffffffffffffffffffffffffffffffffffffff021916908373ffffffffffffffffffffffffffffffffffffffff160217905550808273ffffffffffffffffffffffffffffffffffffffff168473ffffffffffffffffffffffffffffffffffffffff167fddf252ad1be2c89b69c2b068fc378daa952ba7f163c4a11628f55a4df523b3ef60405160405180910390a461140c8383836119b7565b505050565b8173ffffffffffffffffffffffffffffffffffffffff168373ffffffffffffffffffffffffffffffffffffffff161415611480576040517f08c379a000000000000000000000000000000000000000000000000000000000815260040161147790612cce565b60405180910390fd5b80600560008573ffffffffffffffffffffffffffffffffffffffff1673ffffffffffffffffffffffffffffffffffffffff16815260200190815260200160002060008473ffffffffffffffffffffffffffffffffffffffff1673ffffffffffffffffffffffffffffffffffffffff16815260200190815260200160002060006101000a81548160ff0219169083151502179055508173ffffffffffffffffffffffffffffffffffffffff168373ffffffffffffffffffffffffffffffffffffffff167f17307eab39ab6107e8899845ad3d59bd9653f200f220920489ca2b5937696c31836040516115719190611f0d565b60405180910390a3505050565b6115898484846111aa565b611595848484846119bc565b6115d4576040517f08c379a00000000000000000000000000000000000000000000000000000000081526004016115cb90612d60565b60405180910390fd5b50505050565b6060600d80546115e990612563565b80601f016020809104026020016040519081016040528092919081815260200182805461161590612563565b80156116625780601f1061163757610100808354040283529160200191611662565b820191906000526020600020905b81548152906001019060200180831161164557829003601f168201915b5050505050905090565b606060008214156116b4576040518060400160405280600181526020017f300000000000000000000000000000000000000000000000000000000000000081525090506117c8565b600082905060005b600082146116e65780806116cf90612a8b565b915050600a826116df9190612a5a565b91506116bc565b60008167ffffffffffffffff81111561170257611701612266565b5b6040519080825280601f01601f1916602001820160405280156117345781602001600182028036833780820191505090505b5090505b600085146117c15760018261174d9190612bf8565b9150600a8561175c9190612d80565b60306117689190612c2c565b60f81b81838151811061177e5761177d61286f565b5b60200101907effffffffffffffffffffffffffffffffffffffffffffffffffffffffffffff1916908160001a905350600a856117ba9190612a5a565b9450611738565b8093505050505b919050565b60007f01ffc9a7000000000000000000000000000000000000000000000000000000007bffffffffffffffffffffffffffffffffffffffffffffffffffffffff1916827bffffffffffffffffffffffffffffffffffffffffffffffffffffffff1916149050919050565b60008073ffffffffffffffffffffffffffffffffffffffff166002600084815260200190815260200160002060009054906101000a900473ffffffffffffffffffffffffffffffffffffffff1673ffffffffffffffffffffffffffffffffffffffff1614159050919050565b6118ae838383610f22565b600073ffffffffffffffffffffffffffffffffffffffff168373ffffffffffffffffffffffffffffffffffffffff1614156118f1576118ec81611b53565b611930565b8173ffffffffffffffffffffffffffffffffffffffff168373ffffffffffffffffffffffffffffffffffffffff161461192f5761192e8382611b9c565b5b5b600073ffffffffffffffffffffffffffffffffffffffff168273ffffffffffffffffffffffffffffffffffffffff1614156119735761196e81611d09565b6119b2565b8273ffffffffffffffffffffffffffffffffffffffff168273ffffffffffffffffffffffffffffffffffffffff16146119b1576119b08282611dda565b5b5b505050565b505050565b60006119dd8473ffffffffffffffffffffffffffffffffffffffff16610eff565b15611b46578373ffffffffffffffffffffffffffffffffffffffff1663150b7a02611a06611054565b8786866040518563ffffffff1660e01b8152600401611a289493929190612e06565b602060405180830381600087803b158015611a4257600080fd5b505af1925050508015611a7357506040513d601f19601f82011682018060405250810190611a709190612e67565b60015b611af6573d8060008114611aa3576040519150601f19603f3d011682016040523d82523d6000602084013e611aa8565b606091505b50600081511415611aee576040517f08c379a0000000000000000000000000000000000000000000000000000000008152600401611ae590612d60565b60405180910390fd5b805181602001fd5b63150b7a0260e01b7bffffffffffffffffffffffffffffffffffffffffffffffffffffffff1916817bffffffffffffffffffffffffffffffffffffffffffffffffffffffff191614915050611b4b565b600190505b949350505050565b6008805490506009600083815260200190815260200160002081905550600881908060018154018082558091505060019003906000526020600020016000909190919091505550565b60006001611ba984610ad4565b611bb39190612bf8565b9050600060076000848152602001908152602001600020549050818114611c98576000600660008673ffffffffffffffffffffffffffffffffffffffff1673ffffffffffffffffffffffffffffffffffffffff168152602001908152602001600020600084815260200190815260200160002054905080600660008773ffffffffffffffffffffffffffffffffffffffff1673ffffffffffffffffffffffffffffffffffffffff168152602001908152602001600020600084815260200190815260200160002081905550816007600083815260200190815260200160002081905550505b6007600084815260200190815260200160002060009055600660008573ffffffffffffffffffffffffffffffffffffffff1673ffffffffffffffffffffffffffffffffffffffff16815260200190815260200160002060008381526020019081526020016000206000905550505050565b60006001600880549050611d1d9190612bf8565b9050600060096000848152602001908152602001600020549050600060088381548110611d4d57611d4c61286f565b5b906000526020600020015490508060088381548110611d6f57611d6e61286f565b5b906000526020600020018190555081600960008381526020019081526020016000208190555060096000858152602001908152602001600020600090556008805480611dbe57611dbd612e94565b5b6001900381819060005260206000200160009055905550505050565b6000611de583610ad4565b905081600660008573ffffffffffffffffffffffffffffffffffffffff1673ffffffffffffffffffffffffffffffffffffffff168152602001908152602001600020600083815260200190815260200160002081905550806007600084815260200190815260200160002081905550505050565b6000604051905090565b600080fd5b600080fd5b60007fffffffff0000000000000000000000000000000000000000000000000000000082169050919050565b611ea281611e6d565b8114611ead57600080fd5b50565b600081359050611ebf81611e99565b92915050565b600060208284031215611edb57611eda611e63565b5b6000611ee984828501611eb0565b91505092915050565b60008115159050919050565b611f0781611ef2565b82525050565b6000602082019050611f226000830184611efe565b92915050565b600073ffffffffffffffffffffffffffffffffffffffff82169050919050565b6000611f5382611f28565b9050919050565b611f6381611f48565b82525050565b6000602082019050611f7e6000830184611f5a565b92915050565b600081519050919050565b600082825260208201905092915050565b60005b83811015611fbe578082015181840152602081019050611fa3565b83811115611fcd576000848401525b50505050565b6000601f19601f8301169050919050565b6000611fef82611f84565b611ff98185611f8f565b9350612009818560208601611fa0565b61201281611fd3565b840191505092915050565b600060208201905081810360008301526120378184611fe4565b905092915050565b6000819050919050565b6120528161203f565b811461205d57600080fd5b50565b60008135905061206f81612049565b92915050565b60006020828403121561208b5761208a611e63565b5b600061209984828501612060565b91505092915050565b6120ab81611f48565b81146120b657600080fd5b50565b6000813590506120c8816120a2565b92915050565b600080604083850312156120e5576120e4611e63565b5b60006120f3858286016120b9565b925050602061210485828601612060565b9150509250929050565b6121178161203f565b82525050565b6000602082019050612132600083018461210e565b92915050565b60008060006060848603121561215157612150611e63565b5b600061215f868287016120b9565b9350506020612170868287016120b9565b925050604061218186828701612060565b9150509250925092565b600061ffff82169050919050565b6121a28161218b565b82525050565b60006020820190506121bd6000830184612199565b92915050565b6000602082840312156121d9576121d8611e63565b5b60006121e7848285016120b9565b91505092915050565b6121f981611ef2565b811461220457600080fd5b50565b600081359050612216816121f0565b92915050565b6000806040838503121561223357612232611e63565b5b6000612241858286016120b9565b925050602061225285828601612207565b9150509250929050565b600080fd5b600080fd5b7f4e487b7100000000000000000000000000000000000000000000000000000000600052604160045260246000fd5b61229e82611fd3565b810181811067ffffffffffffffff821117156122bd576122bc612266565b5b80604052505050565b60006122d0611e59565b90506122dc8282612295565b919050565b600067ffffffffffffffff8211156122fc576122fb612266565b5b61230582611fd3565b9050602081019050919050565b82818337600083830152505050565b600061233461232f846122e1565b6122c6565b9050828152602081018484840111156123505761234f612261565b5b61235b848285612312565b509392505050565b600082601f8301126123785761237761225c565b5b8135612388848260208601612321565b91505092915050565b600080600080608085870312156123ab576123aa611e63565b5b60006123b9878288016120b9565b94505060206123ca878288016120b9565b93505060406123db87828801612060565b925050606085013567ffffffffffffffff8111156123fc576123fb611e68565b5b61240887828801612363565b91505092959194509250565b600081519050919050565b600082825260208201905092915050565b6000819050602082019050919050565b61244981611f48565b82525050565b600061245b8383612440565b60208301905092915050565b6000602082019050919050565b600061247f82612414565b612489818561241f565b935061249483612430565b8060005b838110156124c55781516124ac888261244f565b97506124b783612467565b925050600181019050612498565b5085935050505092915050565b600060208201905081810360008301526124ec8184612474565b905092915050565b6000806040838503121561250b5761250a611e63565b5b6000612519858286016120b9565b925050602061252a858286016120b9565b9150509250929050565b7f4e487b7100000000000000000000000000000000000000000000000000000000600052602260045260246000fd5b6000600282049050600182168061257b57607f821691505b6020821081141561258f5761258e612534565b5b50919050565b7f4552433732313a20617070726f76616c20746f2063757272656e74206f776e6560008201527f7200000000000000000000000000000000000000000000000000000000000000602082015250565b60006125f1602183611f8f565b91506125fc82612595565b604082019050919050565b60006020820190508181036000830152612620816125e4565b9050919050565b7f4552433732313a20617070726f76652063616c6c6572206973206e6f7420746f60008201527f6b656e206f776e6572206e6f7220617070726f76656420666f7220616c6c0000602082015250565b6000612683603e83611f8f565b915061268e82612627565b604082019050919050565b600060208201905081810360008301526126b281612676565b9050919050565b7f4552433732313a2063616c6c6572206973206e6f7420746f6b656e206f776e6560008201527f72206e6f7220617070726f766564000000000000000000000000000000000000602082015250565b6000612715602e83611f8f565b9150612720826126b9565b604082019050919050565b6000602082019050818103600083015261274481612708565b9050919050565b7f455243373231456e756d657261626c653a206f776e657220696e646578206f7560008201527f74206f6620626f756e6473000000000000000000000000000000000000000000602082015250565b60006127a7602b83611f8f565b91506127b28261274b565b604082019050919050565b600060208201905081810360008301526127d68161279a565b9050919050565b7f455243373231456e756d657261626c653a20676c6f62616c20696e646578206f60008201527f7574206f6620626f756e64730000000000000000000000000000000000000000602082015250565b6000612839602c83611f8f565b9150612844826127dd565b604082019050919050565b600060208201905081810360008301526128688161282c565b9050919050565b7f4e487b7100000000000000000000000000000000000000000000000000000000600052603260045260246000fd5b7f4552433732313a20696e76616c696420746f6b656e2049440000000000000000600082015250565b60006128d4601883611f8f565b91506128df8261289e565b602082019050919050565b60006020820190508181036000830152612903816128c7565b9050919050565b7f4552433732313a2061646472657373207a65726f206973206e6f74206120766160008201527f6c6964206f776e65720000000000000000000000000000000000000000000000602082015250565b6000612966602983611f8f565b91506129718261290a565b604082019050919050565b6000602082019050818103600083015261299581612959565b9050919050565b600081905092915050565b60006129b282611f84565b6129bc818561299c565b93506129cc818560208601611fa0565b80840191505092915050565b60006129e482856129a7565b91506129f082846129a7565b91508190509392505050565b7f4e487b7100000000000000000000000000000000000000000000000000000000600052601260045260246000fd5b7f4e487b7100000000000000000000000000000000000000000000000000000000600052601160045260246000fd5b6000612a658261203f565b9150612a708361203f565b925082612a8057612a7f6129fc565b5b828204905092915050565b6000612a968261203f565b91507fffffffffffffffffffffffffffffffffffffffffffffffffffffffffffffffff821415612ac957612ac8612a2b565b5b600182019050919050565b7f4552433732313a207472616e736665722066726f6d20696e636f72726563742060008201527f6f776e6572000000000000000000000000000000000000000000000000000000602082015250565b6000612b30602583611f8f565b9150612b3b82612ad4565b604082019050919050565b60006020820190508181036000830152612b5f81612b23565b9050919050565b7f4552433732313a207472616e7366657220746f20746865207a65726f2061646460008201527f7265737300000000000000000000000000000000000000000000000000000000602082015250565b6000612bc2602483611f8f565b9150612bcd82612b66565b604082019050919050565b60006020820190508181036000830152612bf181612bb5565b9050919050565b6000612c038261203f565b9150612c0e8361203f565b925082821015612c2157612c20612a2b565b5b828203905092915050565b6000612c378261203f565b9150612c428361203f565b9250827fffffffffffffffffffffffffffffffffffffffffffffffffffffffffffffffff03821115612c7757612c76612a2b565b5b828201905092915050565b7f4552433732313a20617070726f766520746f2063616c6c657200000000000000600082015250565b6000612cb8601983611f8f565b9150612cc382612c82565b602082019050919050565b60006020820190508181036000830152612ce781612cab565b9050919050565b7f4552433732313a207472616e7366657220746f206e6f6e20455243373231526560008201527f63656976657220696d706c656d656e7465720000000000000000000000000000602082015250565b6000612d4a603283611f8f565b9150612d5582612cee565b604082019050919050565b60006020820190508181036000830152612d7981612d3d565b9050919050565b6000612d8b8261203f565b9150612d968361203f565b925082612da657612da56129fc565b5b828206905092915050565b600081519050919050565b600082825260208201905092915050565b6000612dd882612db1565b612de28185612dbc565b9350612df2818560208601611fa0565b612dfb81611fd3565b840191505092915050565b6000608082019050612e1b6000830187611f5a565b612e286020830186611f5a565b612e35604083018561210e565b8181036060830152612e478184612dcd565b905095945050505050565b600081519050612e6181611e99565b92915050565b600060208284031215612e7d57612e7c611e63565b5b6000612e8b84828501612e52565b91505092915050565b7f4e487b7100000000000000000000000000000000000000000000000000000000600052603160045260246000fdfea2646970667358221220e654f89670ac0673b17111a0ecf27dffdb552544a8d98eb20639ff7b0ad1bc2f64736f6c63430008090033",
  "linkReferences": {},
  "deployedLinkReferences": {}
}